:100000004BC100007AC1000078C1000076C1000039
:1000100074C1000072C1000070C100006EC1000018
:100020006CC100000C94FA260C94FA260C94FA2663
:1000300064C1000062C1000060C100005EC1000038
:100040005CC100005AC1000058C1000056C1000048
:1000500054C1000052C1000050C100000C94842D16
:100060004CC100000C94EE2E0C94C42E46C100002E
:1000700044C1000042C1000040C100003EC1000078
:100080003CC100003AC1000038C1000036C1000088
:100090000C949B2E0C94722E30C100000C940427FB
:1000A0002CC100002AC1000028C1000026C10000A8
:1000B00024C1000022C1000020C100001EC10000B8
:1000C0001CC100001AC1000018C100000C94492E88
:1000D0000C94202E12C100000C94F72D0C94CE2D00
:1000E0000CC10000852F882F772F7B2F7F2FBF2FEC
:1000F0008C2F902F962F9A2F9E2FA42FA82FAC2FA6
:10010000BF2FB22FB62FBA2F036EDB363D9A9999C7
:10011000993DABAAAA2A3E000000803F084AD73B7F
:100120003BCE016E84BCBFFDC12F3D6C74319ABDC6
:1001300056833DDA3D00C77F11BED9E4BB4C3E91EA
:100140006BAAAABE000000803F072C7AA5BA6CC536
:1001500090DA3B9365FC8BBC53F810FD3C569283C0
:100160004DBD879D3AB63DCBC9BF5BBE73DA0FC9A3
:100170003F05A84CCDB2D44EB93836A9020C50B9BF
:10018000918688083CA6AAAA2ABE000000803F00EB
:1001900000002200250028002B002E003100340032
:1001A00002010000050108010B01000021002400EC
:1001B00027002A002D003000330001010000040157
:1001C00007010A01050505050705080808080202D8
:1001D00002020A0A080804040404010101010101E1
:1001E00001010303030303030303040707070C0CC4
:1001F0000C0C0C0C0C0C020202020606060606068B
:1002000006060B0B0B0B0B0B0B0B0102102020082F
:100210000810204010204080020102010804020161
:1002200001020408102040808040201008040201D0
:100230008004020180402010080402010804020129
:1002400001020408102040800102040810204080B0
:1002500000000A0B02090C0D0E0807030401000040
:10026000000000000000000000000000000000008E
:10027000000000000000000000000000121110004B
:10028000000000000000000000000000000000006E
:10029000000000000000D83E11241FBECFEFD1E2C5
:1002A000DEBFCDBF00E00CBF15E0A0E0B2E0E2EFA2
:1002B000F5EA00E00BBF02C007900D92A033B10732
:1002C000D9F72AE0A0E3B5E001C01D92AA3DB2072C
:1002D000E1F711E0CCE4D1E000E006C0219701098C
:1002E000802FFE010E94A751CB34D10780E0080780
:1002F000A9F70E942D420C94F75282CE2F923F9282
:100300004F925F926F927F928F929F92AF92BF9225
:10031000CF92DF92EF92FF920F931F93CF93DF93D1
:10032000CDB7DEB7CA5ED2400FB6F894DEBF0FBEBF
:10033000CDBF6A3A09F076C28901F42E1C01D901B9
:100340008C918031D9F5B3E04B1371C2F901F18082
:10035000F11004C0C1010E9419112BC0F1E0FF1679
:1003600041F12BE0F21205C081E0F101F3958083A9
:1003700020C03CE0F31204C0F101F395108219C0D3
:10038000D80112966C9170E080E090E00E94EF4EF0
:1003900020E030E048EC52E40E94564E9B01AC0154
:1003A0006EEF6F0DC10102960E949022C1010E9462
:1003B000BB1FF101E150FF4F108234C2813129F59A
:1003C000F901118180EF0E942E2A81E10E942E2ADC
:1003D000F1E0FF1205C0F101E150FF4F808112C230
:1003E000111104C0F101E150FF4FEBC1193041F48C
:1003F000F101EF5FFE4F60817181828193814EC078
:1004000066E676E686E090E449C0823199F522E01E
:1004100042130DC2D80111961C916CE870E0C10125
:1004200002960E942F211330A9F040F4113071F090
:100430001230D9F4F101E352FF4F13C0143071F0C0
:10044000153099F4F101E751FF4F0BC0F101E7526C
:10045000FF4F07C0F101EF51FF4F03C0F101EB5116
:10046000FF4F80809180A280B38080EF0E942E2A6F
:1004700082E184C18331A9F4B1E04B13D8C1C10139
:1004800082519F4F0E94B9206B017C0180EF0E9436
:100490002E2A83E10E942E2AC701B6010E946B36E4
:1004A000B3C18431C9F4E2E04E13C1C161E08AE214
:1004B0000E94562F61E0D80111968C91811101C0E4
:1004C00060E0C10102960E94A4346B017C0180EFC0
:1004D0000E942E2A84E1DECF853109F080C0B3E08E
:1004E0004B13A5C1F901F180E28081010E5F1F4F1E
:1004F0006F2DC8010E94C531882361F0E11017C03B
:100500006F2D70E0C8010E948D25019669F001E011
:1005100010E052C0C1014E96E11029C06F2D70E06D
:100520000E948D25019699F70FEF1FEF45C021E03E
:10053000E21204C06F2D70E0C8011EC032E0E31269
:1005400004C06F2D70E0C8011FC083E0E81204C032
:100550006F2D70E0C80120C094E0E91204C06F2D37
:1005600070E0C80121C04E2D6F2DC80122C0B1E03E
:10057000EB1205C06F2D70E00E9457251CC0E2E011
:10058000EE1205C06F2D70E00E943C2514C0F3E010
:10059000EF1205C06F2D70E00E94A6240CC024E06D
:1005A000E21205C06F2D70E00E94CD2404C04E2DD4
:1005B0006F2D0E946E318C0162E370E080E090E06C
:1005C0000E94D42F80EF0E942E2A85E10E942E2ABD
:1005D000B801110F880B990B0E94F14E5FCF863145
:1005E00011F534E0431323C1D80111966C91119792
:1005F0001296FC90129713960C91F10132961F01FE
:1006000061110BC011E0202F4F2D612FC1010E94FD
:100610000C301F5F1131B9F705C1202F4F2DCF01CD
:100620000E940C30FFC0873159F5F3E04F13FFC033
:10063000D90111966C91119712964C918FEF860FFC
:10064000803128F4C10102960E94D031EBC06111C3
:100650000AC0423008F0E6C0642F6170C101029602
:100660000E943A35DFC0633609F0DCC0423008F042
:10067000D9C0642F6170C10102960E942435D2C096
:10068000803209F049C0B7E04B13D1C0F901D180E5
:100690008281898383818A8384818B8385818C8312
:1006A000CE0101960E9461364B015C01D80116967D
:1006B0006C9170E080E090E00E94EF4E20E030E02E
:1006C00048EC52E40E94564E2B013C0120E030E001
:1006D00040E85FE30E942B5087FF09C020E030E034
:1006E000A901C301B2010E944F4E87FF03C0412CF4
:1006F000512C320120E030E04AE755E4C301B20159
:100700000E94CD507B018C01A50194016D2DC1018A
:1007100002960E94A52B86C0813209F48BC08232DA
:1007200009F482C0833209F404C1843209F430C16F
:10073000853209F06DC0F3E0FF1279C0D80111963F
:10074000FC90119712961C91412F6F2DC1010296BA
:100750000E9408344B015C0162E370E080E090E0AD
:100760000E94D42F4F2D440F440F4450140F80EF9C
:100770000E942E2A85E20E942E2A812F0E942E2A74
:10078000C501B4018BCE8B3209F4DBC2803309F48E
:10079000A7C4813309F4F4C5823309F4AEC78A33A0
:1007A00011F40C94E20C8B3399F4A1E0FA123FC0DF
:1007B00080EF0E942E2A8BE30E942E2AF101E25044
:1007C000FF4F608170E080E090E00E94EF4E66CEC7
:1007D000803411F40C94E80C813411F00C94FE0C6C
:1007E00021E0F21224C08EEB90E00E94F04C182F12
:1007F00080EF0E942E2A81E40E942E2A81E012348A
:1008000009F080E00E942E2A87EF0E942E2A0AC05B
:10081000873209F012C1F80142816181C10102965B
:100820000E9408340C94A70F27E0F216A1F181E092
:100830000C94A70FB2E0FB12FACFF8011181F2E09D
:100840002F0E311C412F65E0C1010E94EF31BC0128
:10085000990F880B990B0E94F14E23E63BE046E38B
:1008600051E40E94564E9B01AC016CE0610F00E028
:10087000C1010E94A6326B017C0162E370E080E05E
:1008800090E00E94D42F80EF0E942E2A81E20E94E5
:100890002E2A812FFFCDD8011196DC901197129648
:1008A0008C911297898313968C9113978A8314964F
:1008B0008C9114978B8315968C918C83CE01019625
:1008C0000E9461364B015C01F801668170E080E0B6
:1008D00090E00E94EF4E20E030E048EC52E40E94AD
:1008E000564E2B013C0120E030E040E85FE30E94DF
:1008F0002B5087FF09C020E030E0A901C301B201FD
:100900000E944F4E87FF03C0412C512C320120E042
:1009100030E04AE755E4C301B2010E94CD507B01AB
:100920008C01A50194016D2DC10102960E94142B2A
:10093000D2C3F2E0FF127BCFD80111961C91B2E036
:100940002B0E311C412F66E0C1010E94EF31BC012A
:10095000990F880B990B0E94F14E23E63BE046E38A
:1009600051E40E94564E9B01AC016EE0610F00E025
:10097000C1010E94A6326B017C0162E370E080E05D
:1009800090E00E94D42F80EF0E942E2A83E27FCF36
:10099000E8E0FE124CCFD8011196BC901197129648
:1009A000AC90129713968C911397898314968C911F
:1009B00014978A8315968C9115978B8316968C9134
:1009C0008C83CE0101960E9461362B013C01F80117
:1009D000678170E080E090E00E94EF4E20E030E020
:1009E00048EC52E40E94564E6B017C0120E030E05E
:1009F00040E85FE30E942B5087FF09C020E030E011
:100A0000A901C701B6010E944F4E87FF03C0C12C48
:100A1000D12C760120E030E04AE755E4C701B60169
:100A20000E94CD506B017C01930182014A2D6B2DF8
:100A3000C10102960E9452344EC38A3209F0A3CEFD
:100A4000D8011196BC91C953DD4FB883C75CD24021
:100A5000F8018281CF53DD4F8883C15CD24083810E
:100A6000CE53DD4F8883C25CD2408481CD53DD4FAD
:100A70008883C35CD2408581CC53DD4F8883C45CBE
:100A8000D240CE018F539D4F0E9461366B017C0195
:100A9000D80116968C911697C354DD4F8883CD5B91
:100AA000D24017968C911797C254DD4F8883CE5B46
:100AB000D24018968C911897C154DD4F8883CF5B34
:100AC000D24019968C91C054DD4F8883C05CD240CF
:100AD000CE0183549D4F0E9461364B015C01F801A9
:100AE0008285CF5BDD4F8883C154D2408385CE5B46
:100AF000DD4F8883C254D2408485CD5BDD4F88832F
:100B0000C354D2408585CC5BDD4F8883C454D2402A
:100B1000CE018F5B9D4F0E9461362B013C01D801B5
:100B20001F966C9170E080E090E00E94EF4E20E014
:100B300030E048EC52E40E94564EC153DD4F6883CA
:100B4000CF5CD240CD52DD4F7883C35DD240C952D5
:100B5000DD4F8883C75DD240C552DD4F9883CB5DA2
:100B6000D240F1013296C553DD4FF983E883CB5C67
:100B7000D240C953DD4F4881C75CD240BF01CE018E
:100B80008F549D4F0E946335CB54DD4F28813981AE
:100B90004A815B81C55BD240C501B4010E94724DA0
:100BA000862EB72E8C01C754DD4F288139814A81AA
:100BB0005B81C95BD240C301B2010E94724D562EC7
:100BC000772E982E492EA7019601CF54DD4F6881CC
:100BD00079818A819B81C15BD2400E94724DA62E91
:100BE000AB01BC01CF57DD4F488359836A837B83B8
:100BF000C158D240E82C882D9B2DD801CB57DD4F12
:100C000088839983AA83BB83C558D240252D852D1F
:100C1000972DA92DB42DC757DD4F88839983AA83BB
:100C2000BB83C958D240B10165537F4FC953DD4FD3
:100C30008880C75CD240CE57DD4FB880C258D240C2
:100C4000CD57DD4FC880C358D240CC57DD4FD88038
:100C5000C458D240CA57DD4FF880C658D240C95751
:100C6000DD4F0881C758D240C857DD4F1881C8589A
:100C7000D240C657DD4F3881CA58D240C557DD4FE4
:100C80004881CB58D240C457DD4F5881CC58D24010
:100C9000CE0101960E94401625E33AEF4EE85CE350
:100CA00069857A858B859C850E94564E5B016C0117
:100CB00025E33AEF4EE85CE36D817E818F81988574
:100CC0000E94564E2B013C0125E33AEF4EE85CE3CF
:100CD00069817A818B819C810E94564E9B01AC0177
:100CE000C552DD4FF881CB5DD240FF93C952DD4F35
:100CF0008881C75DD2408F93CD52DD4F9881C35D0F
:100D0000D2409F93C153DD4FA881CF5CD240AF93B7
:100D100083017201C953DD4F6881C75CD240C5535E
:100D2000DD4F88819981CB5CD2400E94CF35F101A3
:100D3000E150FF4F81E080830F900F900F900F9054
:100D400071CDBEE0FB1273CDF8018181CF53DD4F31
:100D50008883C15CD2408281CE53DD4F8883C25CE0
:100D6000D2408381CD53DD4F8883C35CD2408481E0
:100D7000CC53DD4F8883C45CD240CE018F539D4F4E
:100D80000E946136CD52DD4F688379838A839B83CD
:100D9000C35DD240D80115968C911597C354DD4F91
:100DA0008883CD5BD24016968C911697C254DD4F46
:100DB0008883CE5BD24017968C911797C154DD4F34
:100DC0008883CF5BD24018968C91C054DD4F8883C6
:100DD000C05CD240CE0183549D4F0E946136C952FF
:100DE000DD4F688379838A839B83C75DD240F80196
:100DF0008185CF54DD4F8883C15BD2408285CE543C
:100E0000DD4F8883C25BD2408385CD54DD4F88831C
:100E1000C35BD2408485CC54DD4F8883C45BD24011
:100E2000CE018F549D4F0E946136C552DD4F6883BD
:100E300079838A839B83CB5DD240D8011D966C91C8
:100E400070E080E090E00E94EF4E20E030E048EC5F
:100E500052E40E94564EC152DD4F6883CF5DD240AE
:100E6000CF51DD4F7883C15ED240CB51DD4F8883B7
:100E7000C55ED240992EF1013296C153DD4FF98300
:100E8000E883CF5CD2409E012F573D4FC953DD4FC1
:100E900039832883C75CD2402E013FEB431A3DEFD4
:100EA000530A612C712CC10185539F4FC751DD4FEF
:100EB00099838883C95ED24088248394860CECE0B1
:100EC000E69DD001E79DB00D1124C553DD4FB983D8
:100ED000A883CB5CD240482DC153DD4F6881798116
:100EE000CF5CD24081E892E08C0F9D1F8A0F9B1F40
:100EF0000E946335C953DD4FE881F981C75CD24058
:100F0000D2018CE001900D928A95E1F7CD52DD4F30
:100F1000288139814A815B81C35DD240D2016D91C4
:100F20007D918D919C910E94714DF201608371833E
:100F300082839383C952DD4F288139814A815B8145
:100F4000C75DD24064817581868197810E94714D11
:100F5000D20114966D937D938D939C931797C552F0
:100F6000DD4F288139814A815B81CB5DD240189663
:100F70006D917D918D919C911B970E94714DF20115
:100F80006087718782879387E1E4F2E0EC0FFD1FB1
:100F9000C553DD4F28813981CB5CD240E20FF31F6E
:100FA000A080B180C280D380E480F5800681178163
:100FB0002085318542855385C751DD4F6881798110
:100FC000C95ED24081E090E08C0F9D1FC553DD4F7C
:100FD000A881B981CB5CD2408A0F9B1F0E9440162A
:100FE000BFEF6B1A7B0AC953DD4FE881F981C75CFB
:100FF000D2403C96C953DD4FF983E883C75CD240A9
:10100000FCE04F0E511C24E06216710409F054CF2D
:10101000CE0101963C018824839425E33AEF4EE803
:101020005CE3D30118966D917D918D919C911B97F6
:101030000E94564E5B016C0125E33AEF4EE85CE3FB
:10104000F30164817581868197810E94564EC95350
:10105000DD4F688379838A839B83C75CD24025E315
:101060003AEF4EE85CE3D3016D917D918D919C91B7
:101070000E94564E9B01AC019F92CB51DD4FB8812F
:10108000C55ED240BF93CF51DD4FE881C15ED240F3
:10109000EF93C152DD4FF881CF5DD240FF93C9532A
:1010A000DD4FE880F9800A811B81C75CD240682D42
:1010B000C153DD4F88819981CF5CD2400E94CF35EA
:1010C0002CE0620E711C83940F900F900F900F9084
:1010D00035E08312A2CFF101E150FF4F81E00BC355
:1010E000610182E0C80ED11C20E030E040E05FE307
:1010F00060E0C6010E94902268EA70E0C6010E948A
:101100002F21D80112968C911297CF54DD4F8883EE
:10111000C15BD24013968C911397CE54DD4F8883D8
:10112000C25BD24014968C911497CD54DD4F8883C6
:10113000C35BD24015968C91CC54DD4F8883C45B41
:10114000D240CE018F549D4F0E946136C953DD4F6E
:10115000688379838A839B83C75CD240F801868148
:10116000CF57DD4F8883C158D2408781CE57DD4F9E
:101170008883C258D2408085CD57DD4F8883C358BD
:10118000D2408185CC57DD4F8883C458D240CE01F0
:101190008F579D4F0E9461364B015C01D8011A9612
:1011A0008C911A97CF5BDD4F8883C154D2401B9638
:1011B0008C911B97CE5BDD4F8883C254D2401C9626
:1011C0008C911C97CD5BDD4F8883C354D2401D9614
:1011D0008C91CC5BDD4F8883C454D240CE018F5BB1
:1011E0009D4F0E946136C553DD4F688379838A83A2
:1011F0009B83CB5CD240F801668570E080E090E094
:101200000E94EF4E20E030E048EC52E40E94564E3F
:101210002B013C012AE939E949E15EE30E944F4E86
:1012200087FD11C020E030E040E85FE3C301B20178
:101230000E942B5018167CF4412C512C20E8622E71
:101240002FE3722E08C09AE9492E99E9592E99E1A7
:10125000692E9EE3792EF0E1FF1204C0D8011F969B
:101260001C9101C011E04F86588A698A7A8AC95355
:10127000DD4F88819981AA81BB81C75CD2408B8375
:101280009C83AD83BE838F829886A986BA86C55318
:10129000DD4F88819981AA81BB81CB5CD2408B874D
:1012A0009C87AD87BE87112309F464C081E090E07C
:1012B0009C8B8B8B9A838983ADB7BEB754970FB63F
:1012C000F894BEBF0FBEADBF119684E1FE0131960A
:1012D00001900D928A95E1F7C1010E941A370FB66D
:1012E000F894DEBF0FBECDBF123020F1812F90E009
:1012F00001979C8B8B8B82E090E09A8389832DB73A
:101300003EB7245131090FB6F8943EBF0FBE2DBF32
:10131000ADB7BEB7119684E1FE01319601900D92F2
:101320008A95E1F7C1010E941A370FB6F894DEBF23
:101330000FBECDBF81E090E09C8B8B8B8FEF9FEF3A
:101340009A838983ADB7BEB754970FB6F894BEBFE2
:101350000FBEADBF119684E1FE01319601900D9252
:101360008A95E1F7C1010E941A370FB6F894DEBFE3
:101370000FBECDBF2DEC3CEC4CE45FE360E01DC341
:10138000D80111968C911197CF5BDD4F8883C154A2
:10139000D24012968C911297CE5BDD4F8883C25457
:1013A000D24013968C911397CD5BDD4F8883C35445
:1013B000D24014968C91CC5BDD4F8883C454D240CC
:1013C000CE018F5B9D4F0E9461362B013C01F801DD
:1013D000658170E080E090E00E94EF4E20E030E018
:1013E00048EC52E40E94564EB62EC72ED82EE92E57
:1013F000C553DD4F6883CB5CD240C153DD4F78834A
:10140000CF5CD240CD52DD4F8883C35DD240C952FC
:10141000DD4F9883C75DD2402DEC3CEC4CEC5DE396
:101420000E944F4E87FD23C020E030E040E85FE39C
:101430006B2D7C2D8D2D9E2D0E942B5018167CF52A
:10144000C553DD4F1882CB5CD240C153DD4F1882AB
:10145000CF5CD240F0E8CD52DD4FF883C35DD2407F
:101460002FE3C952DD4F2883C75DD24018C03DEC41
:10147000C553DD4F3883CB5CD2408CECC153DD4F7C
:101480008883CF5CD2409CECCD52DD4F9883C35D06
:10149000D240ADE3C952DD4FA883C75DD240B7E06B
:1014A000FB1203C0F801868101C081E0282F30E0E3
:1014B000C552DD4F39832883CB5DD240C553DD4F04
:1014C0007881CB5CD240C153DD4F6881CF5CD24084
:1014D000CD52DD4F9881C35DD240C952DD4F888126
:1014E000C75DD240272F362F492F582F60E070E07C
:1014F00080E89FE30E94714D20E030E048E452E430
:101500000E94CD500E94BE4E6B0138E2C30ED11C2A
:10151000C1010296C152DD4F99838883CF5DD240CD
:101520009301820141E050E071019BECE90EF11C56
:10153000B701CE0101960E94621C5E01A1E9AA0ECC
:10154000B11C9301820142E050E0B701C5010E9445
:10155000621C9301820143E050E0B701CE018F5D30
:101560009E4F0E94621C9301820144E050E0B7014B
:10157000CE018F549E4F0E94621C412C512CCB53A4
:10158000DD4FB982A882C55CD240C601DD0CAA0B32
:10159000BB0BCB51DD4F88839983AA83BB83C55E88
:1015A000D240C1010E94BB1FDE0111963D014301E3
:1015B000B1E0C953DD4FB883C75CD24025E33AEFB1
:1015C0004EE85CE3F40160857185828593850E9415
:1015D000564E5B016C0125E33AEF4EE85CE3D40123
:1015E00014966D917D918D919C9117970E94564E06
:1015F000CF51DD4F688379838A839B83C15ED2405C
:1016000025E33AEF4EE85CE3F40160817181828169
:1016100093810E94564E9B01AC01C952DD4FF88167
:10162000C75DD240FF93CD52DD4F8881C35DD2406C
:101630008F93C153DD4F9881CF5CD2409F93C553A8
:10164000DD4FA881CB5CD240AF93CF51DD4FE88016
:10165000F9800A811B81C15ED240C953DD4F688188
:10166000C75CD240C152DD4F88819981CF5DD240A5
:101670000E94CF35B0E98B0E911CC953DD4FE88134
:10168000C75CD240EF5FC953DD4FE883C75CD240EF
:101690000F900F900F900F90E53009F08FCFCB5146
:1016A000DD4F688179818A819B81C55ED2400E942D
:1016B000D42FFCE06F0E711CCB53DD4F2881398194
:1016C000C55CD2402615370509F071CF3FEF431AAC
:1016D000530AC552DD4F88819981CB5DD2404816AF
:1016E00059062CF49FE14916510409F05ACFF10133
:1016F000E150FF4F83E0808395C86101A2E0CA0EEC
:10170000D11C2AE939E949E95EE362E0C6010E9499
:10171000902268EA70E0C6010E942F21F8018281C0
:10172000CF54DD4F8883C15BD2408381CE54DD4FDF
:101730008883C25BD2408481CD54DD4F8883C35BF4
:10174000D2408581CC54DD4F8883C45BD240CE012A
:101750008F549D4F0E946136C953DD4F6883798352
:101760008A839B83C75CD240D80116968C911697CA
:10177000CF57DD4F8883C158D24017968C91179769
:10178000CE57DD4F8883C258D24018968C91189757
:10179000CD57DD4F8883C358D24019968C91CC57D2
:1017A000DD4F8883C458D240CE018F579D4F0E9491
:1017B00061362B013C01F8018285CF5BDD4F8883C8
:1017C000C154D2408385CE5BDD4F8883C254D24062
:1017D0008485CD5BDD4F8883C354D2408585CC5B47
:1017E000DD4F8883C454D240CE018F5B9D4F0E9451
:1017F0006136C553DD4F688379838A839B83CB5CD5
:10180000D240D8011E966C9170E080E090E00E947A
:10181000EF4E20E030E048EC52E40E94564E4B017F
:101820005C012AE939E949E15EE30E944F4E87FDF8
:1018300011C020E030E040E85FE3C501B4010E9440
:101840002B5018167CF4812C912C80E8A82E8FE365
:10185000B82E08C0BAE98B2EB9E99B2EB9E1AB2EA0
:10186000BEE3BB2EB0E1FB1203C0F801178501C037
:1018700011E0C953DD4F88819981AA81BB81C75C82
:10188000D2408B839C83AD83BE834F82588669860A
:101890007A86C553DD4F88819981AA81BB81CB5C53
:1018A000D2408B879C87AD87BE871130A9F481E039
:1018B00090E09C8B8B8B83E090E09A8389838F866A
:1018C000988AA98ABA8AADB7BEB754970FB6F8946A
:1018D000BEBF0FBEADBF5EC0123008F46BC081E06A
:1018E00090E09C8B8B8B9A8389838F86988AA98AB8
:1018F000BA8A2DB73EB7245131090FB6F8943EBFCE
:101900000FBE2DBFADB7BEB7119684E1FE01319673
:1019100001900D928A95E1F7C1010E94A2440FB691
:10192000F894DEBF0FBECDBF123009F1812F90E0D9
:1019300002979C8B8B8B82E090E09A838983ADB772
:10194000BEB754970FB6F894BEBF0FBEADBF119689
:1019500084E1FE01319601900D928A95E1F7C10173
:101960000E94A2440FB6F894DEBF0FBECDBF81E047
:1019700090E09C8B8B8B8FEF9FEF9A8389832DB7A1
:101980003EB7245131090FB6F8943EBF0FBE2DBFAC
:10199000ADB7BEB7119684E1FE01319601900D926C
:1019A0008A95E1F7C1010E94A2440FB6F894DEBF08
:1019B0000FBECDBFA501940162E0C6010E94902236
:1019C0000C94120492E0F9120C9417040C94120473
:1019D000B1E0FB120C9417047101E2E0EE0EF11C71
:1019E00011E06101FEE1CF0ED11C173008F4B7C140
:1019F00083EF810F823008F0B5C1B1C1803511F09D
:101A00000C94120432E0F3120C941704D8011196CE
:101A10008C91813009F421C1F8F0823011F00C94DE
:101A2000120492E0290E311CE12CF12C06E914E499
:101A300020E030E040EA51E461E0C1010E94142B53
:101A400020E030E040EA51E462E0C1010E94142B42
:101A500024E0C22ED12C4FC1E4E0F0E0C553DD4FAD
:101A6000F983E883CB5CD240F1E0C953DD4FF883C2
:101A7000C75CD24022E0220E311CE9E99E2EC953F8
:101A8000DD4F3881C75CD240632F70E080E090E08A
:101A90000E94F14E20E030E040E251E40E94CD503F
:101AA0002B013C0120E030E040EA51E40E94724DFD
:101AB000C153DD4F688379838A839B83CF5CD24097
:101AC0008EE38F9379E9872E9F929F929AE99F9355
:101AD000C153DD4FA880B980CA80DB80CF5CD24083
:101AE00083017201A301920161E0C1010E94CF351F
:101AF000AEE3AF939F929F92BAE9BF93C153DD4F7C
:101B0000A880B980CA80DB80CF5CD240A30192015B
:101B100062E0C1010E94CF3520E030E044EB52E4A6
:101B2000C301B2010E94714DC153DD4F68837983B7
:101B30008A839B83CF5CD240EEE3EF939F929F9288
:101B4000FAE9FF93C153DD4FA880B980CA80DB80DA
:101B5000CF5CD240A301920163E0C1010E94CF3566
:101B60002EE32F939F929F923AE93F93C153DD4F0B
:101B7000A880B980CA80DB80CF5CD240A3019201EB
:101B800064E0C1010E94CF3581E0C953DD4F9881E7
:101B9000C75CD2409827C953DD4F9883C75CD240B9
:101BA00068EE73E080E090E00E94D42FC553DD4FD3
:101BB000A881B981CB5CD2401197C553DD4FB98361
:101BC000A883CB5CD2400FB6F894DEBF0FBECDBF6A
:101BD000AB2B09F054CFFEE3FF938F928F922AE94B
:101BE0002F93A12CB12C650186017501A6019501E9
:101BF00061E0C1010E94CF353EE33F938F928F9207
:101C00008AE98F93A601950162E0C1010E94CF3558
:101C10009EE39F938F928F92AAE9AF93A12CB12C50
:101C200064EBC62E62ECD62EA801970163E0C101D9
:101C30000E94CF35BEE3BF938F928F92EAE9EF9374
:101C4000A801970164E0C1010E94CF350FB6F89456
:101C5000DEBF0FBECDBF0C94120432E0230E311C48
:101C6000E12CF12C06E914E420E030E040EA51E4F4
:101C700061E0C1010E94A52B20E030E040EA51E480
:101C800062E0C1010E94A52B54E0C52ED12CE12CAD
:101C9000F12C06E914E420E030E040EA51E461E090
:101CA000C1010E94A52B20E030E040EA51E462E04F
:101CB000C1010E94A52B64EF71E080E090E00E94DA
:101CC000D42F20E030E0A90161E0C1010E94A52BE2
:101CD00020E030E0A90162E0C1010E94A52B64EF81
:101CE00071E080E090E00E94D42F81E0C81AD10812
:101CF00071F60C941204E12CF12C06E914E420E0B6
:101D000030E040EA51E461E0C1010E94142B20E080
:101D100030E040EA51E462E0C1010E94142B64EF1C
:101D200071E080E090E00E94D42F20E030E0A90133
:101D300061E0C1010E94142B20E030E0A90162E0C3
:101D4000C1010E94142B64EF71E080E090E00E94DA
:101D5000D42FA1E0CA1AD10871F60C941204612F95
:101D6000C70102C0612FC6010E94A9256AE070E088
:101D700080E090E00E94D42F1F5F113109F035CE32
:101D800086E694E00E945F2980E4EAE0F2E0DE016A
:101D9000AF5BBD4F01900D928A95E1F711E001E034
:101DA000402F612FC7010E94EF31BC01990F880BB2
:101DB000990B0E94F14E22E030E040E055E40E9491
:101DC000714D23E63BE046E351E40E94564E4B0141
:101DD0005C01602F812F0E94532C90E00197880FA7
:101DE000991F880F991F6101C80ED91EE1E4F2E026
:101DF000EC0FFD1FE80FF91F2081318142815381D3
:101E0000C501B4010E94714DD601DB966D937D939F
:101E10008D939C93DE970F5F043011F61F5F153092
:101E200009F0BDCF6DE070E0C7010E941825810167
:101E300005591F4FBC01990F880B990B0E94F14E59
:101E400022E030E040E055E40E94714D23E63BE0A3
:101E500046E351E40E94564EF80160837183828309
:101E60009383349610821182128213826FE070E0A5
:101E7000C1014E960E941825085F1F4FBC01990FA3
:101E8000880B990B0E94F14E22E030E040E055E4CF
:101E90000E94714D23E63BE046E351E40E94564E1A
:101EA000D8016D937D938D939C931397F101E9581D
:101EB000FF4F108211821282138200E010E060E076
:101EC000C8010E94F84C0F5F1F4F0C32B1E01B0796
:101ED000B1F780E4F101FB96DE01119601900D92BD
:101EE0008A95E1F78E010F5F1F4FF8E6AF2EB12CF8
:101EF0006501E4E0CE1AD1084801D4017D904D017E
:101F0000C6010E94F04C781621F0672DC6010E9490
:101F1000F84CBFEFCB1ADB0ACA14DB0471F7560189
:101F2000E4E0AE0EB11C0C5F1F4FF8EAAF16B1042F
:101F3000F9F662E48EEB90E00E94F84CC7010E9433
:101F400009328DE794E00E945F290C941204C65177
:101F5000DD4F0FB6F894DEBF0FBECDBFDF91CF913E
:101F60001F910F91FF90EF90DF90CF90BF90AF90B7
:101F70009F908F907F906F905F904F903F902F90A9
:101F8000089508952FB7F8944091CD0A5091CE0A44
:101F90006091CF0A7091D00A2FBFFC01468357830E
:101FA0006087718723E130E03387228708956A379D
:101FB000A9F4423098F0F9014181208130E0F0E845
:101FC0004F9F200D311D11242115310511F421E001
:101FD00030E0FC013387228781E0089580E0089596
:101FE00080E008950F931F93CF938C01C0E0D80138
:101FF0005E968C91C81780F4F801EC0FF11DEC0F80
:10200000F11D82819381DC01ED91FC910680F781C5
:10201000E02D1995CF5FEBCFCF911F910F910895D0
:10202000DF92EF92FF920F931F93CF93DF938C0178
:10203000D62E7A01C0E0D0E0D8015E968C91C81708
:1020400098F4F801EC0FF11DEC0FF11D82819381E2
:10205000DC01ED91FC910280F381E02DA7016D2D53
:102060001995D82BCF5FE8CF8D2FDF91CF911F919E
:102070000F91FF90EF90DF9008958EEA9AE0B2CF33
:10208000CF92DF92FF920F931F93CF93DF938C0138
:10209000D62FF42E69016B3609F446C06D3611F067
:1020A000C0E083C0442309F484C0D901CC91C63474
:1020B00008F07FC080EF0E942E2A8EE60E942E2A12
:1020C0008C2F0E942E2AD0E0FE01EF54F74F808122
:1020D0000E942E2ACC0FDD1FC950D74F0990D881FE
:1020E000C02D8C2F8F770E942E2ACE018078892BCD
:1020F00041F0CE01880F892F881F990B8F770E949E
:102100002E2ACE018827907C892B49F0CE01990F89
:10211000880B990F982F881F8F770E942E2A87EFA0
:102120000E942E2A81E046C080EF0E942E2A8CE673
:102130000E942E2A81EBC82E88E0D82ED0E0F6012E
:1021400081916F018F37B9F0C0E0D8015E968C9114
:10215000C81788F4F801EC0FF11DEC0FF11D828116
:102160009381DC01ED91FC910190F081E02D6D2FC8
:102170001995CF5FEACF8FE70E942E2ADF5FD63412
:10218000F1F6CDCFEC0FF11DEC0FF11D82819381A3
:10219000DC01ED91FC910480F581E02D96014F2D3D
:1021A0006D2F1995811106C0CF5FF801868DC81774
:1021B00048F380E0DF91CF911F910F91FF90DF9066
:1021C000CF9008959A01A0919909B0919A09ED9143
:1021D000FC9111970480F581E02D462F682FCD01E9
:1021E0001995811105C063E874E087E10C94062A13
:1021F0000895CF93DF93EB01A0919909B0919A09CB
:10220000ED91FC9111970280F381E02DAB01682FD5
:10221000CD01199581110AC0CF37D10539F06BE98D
:1022200074E080E1DF91CF910C94062ADF91CF9189
:102230000895CF93DF93EC01229660E0CE010E94D7
:10224000A43426E636E646EC50E40E942B501816DD
:1022500054F461E0CE010E94243560E0CE01DF91AC
:10226000CF910C943A35DF91CF910895413089F0A8
:1022700028F04230C9F0433061F0089521502230F7
:1022800020F42CE0EAE4F2E019C02CE0E6E5F2E00C
:1022900015C02150223020F42CE0E2E6F2E00EC01E
:1022A0002CE0EEE6F2E00AC02150223020F42CE0CF
:1022B000EAE7F2E003C02CE0E6E8F2E0DC0101909E
:1022C0000D922A95E1F708952F923F924F925F92D7
:1022D0006F927F928F929F92AF92BF92CF92DF9236
:1022E000EF92FF920F931F93CF93DF93CDB7DEB79B
:1022F000AB970FB6F894DEBF0FBECDBF9F878E871A
:10230000A982BA82CB82DC82ED82FE820F8318879B
:1023100029873A874B875C872E961FAD2E972F967D
:102320003FAC2F9760962FAC609761968FAD619709
:102330008D8762960FAD629766968CAD9DADAEAD02
:10234000BFAD669788A799A7AAA7BBA789819A81DD
:10235000AB81BC81888B998BAA8BBB8B8D819E8135
:10236000AF81B8858C8B9D8BAE8BBF8B89849A8413
:10237000AB84BC8425968CAD9DADAEADBFAD25972D
:102380008C8F9D8FAE8FBF8F29968CAD9DADAEADDE
:10239000BFAD299788A399A3AAA3BBA32D968CAD03
:1023A0009DADAEADBFAD2D978CA39DA3AEA3BFA336
:1023B00020E030E040E85FE3632D722D8D85902FA3
:1023C0000E942B5018160CF44EC1112309F452C16F
:1023D00020E030E040E05FE3632D722D8D85902F8B
:1023E0000E944F4E87FF35C020E030E040E851ECBE
:1023F000632D722D8D85902F0E94CD50232D322D6F
:102400004D85502F0E94CD50232D322D4D85502FBC
:102410000E94CD506B017C0120E030E040E451E4AB
:10242000632D722D8D85902F0E94CD50232D322D3E
:102430004D85502F0E94CD509B01AC01C701B601C4
:102440000E94724D2B013C01E32CF22CDD84102FF5
:1024500025C0E32CF22CDD84102F20E030E040E892
:1024600050ECB7018D2D912F0E94CD5097014D2D2D
:10247000512F0E94CD502B013C0120E030E040E87C
:1024800050E4B7018D2D912F0E94CD509B01AC01DE
:10249000C301B2010E94724D2B013C0120E030E0EB
:1024A00040E85EE3B7018D2D912F0E944F4E87FDCE
:1024B00057C020E030E040E45FE3B7018D2D912F5D
:1024C0000E942B5018160CF44FC020E030E040E87A
:1024D00051ECB7018D2D912F0E94CD5097014D2DBC
:1024E000512F0E94CD5097014D2D512F0E94CD505C
:1024F000688F798F8A8F9B8F20E030E040EC51E429
:10250000B7018D2D912F0E94CD5097014D2D512F48
:102510000E94CD509B01AC01688D798D8A8D9B8D79
:102520000E94724D688F798F8A8F9B8F20E030E0F8
:1025300040E151E4B7018D2D912F0E94CD509B01B8
:10254000AC01688D798D8A8D9B8D0E94714D20E044
:1025500030E040E85FE30E94724D6B017C010AC0ED
:10256000C12CD12C760106C0C12CD12C90E8E92ECB
:102570009FE3F92E288939894A895B896C8D7D8D85
:102580008E8D9F8D0E94714DA70196010E94CD50A6
:10259000288939894A895B890E94724DAE85BF8539
:1025A0006D937D938D939C9313972C893D894E89D0
:1025B0005F8968A179A18AA19BA10E94714DA701A1
:1025C00096010E94CD502C893D894E895F890E94D9
:1025D000724DEE85FF856483758386839783A5019D
:1025E00094016CA17DA18EA19FA10E94714D6B01F0
:1025F0007C0120E030E0A9010E942B5018165CF409
:102600002FE632E143E85AE3C701B6010E942B509E
:1026100018165CF015C02FE632E143E85AEBC7010B
:10262000B6010E944F4E87FF0BC08CEA94E00E94D7
:102630005F29232D322D4D85502FC701B6015FC074
:10264000A301920168A579A58AA59BA50E94CD50FA
:10265000A50194010E94724DEE85FF856087718708
:102660008287938764C0312C212C111157C0F0E868
:10267000FD870FE3288939894A895B896C8D7D8DB7
:102680008E8D9F8D0E94714D232D322D4D85502FA3
:102690000E94CD50288939894A895B890E94724DF0
:1026A000AE85BF856D937D938D939C9313972C89F5
:1026B0003D894E895F8968A179A18AA19BA10E9469
:1026C000714D232D322D4D85502F0E94CD502C89D8
:1026D0003D894E895F890E94724DEE85FF85648336
:1026E000758386839783A50194016CA17DA18EA13A
:1026F0009FA10E94714D232D322D4D85502F0E9498
:10270000CD50A50194010E94724DAE85BF851896EB
:102710006D937D938D939C931B9709C0B0E8BD8703
:102720000FE3E12CF12C80E8D82E1FE396CE8E85A6
:102730009F85AB960FB6F894DEBF0FBECDBFDF917D
:10274000CF911F910F91FF90EF90DF90CF90BF90AE
:10275000AF909F908F907F906F905F904F903F9041
:102760002F9008952F923F924F925F926F927F9297
:102770008F929F92AF92BF92CF92DF92EF92FF9291
:102780000F931F93CF93DF93CDB7DEB76C970FB640
:10279000F894DEBF0FBECDBF1C01A982BA82CB82E6
:1027A000DC82ED82FE820F83188729873A874B8768
:1027B0005C87182D89819A81AB81BC81898B9A8B2A
:1027C000AB8BBC8B8D819E81AF81B8858D879E87B9
:1027D000AF87B88B49845A846B847C848FEF880DD3
:1027E000823008F450C1A30192016D857E858F85EA
:1027F00098890E94724D6D8B7E8B8F8B988F0E9473
:1028000030516B017C016D857E858F8598890E9492
:1028100030514B015C01A301920160E577E786E549
:102820009EE30E94714D2D893E894F89588D0E94EB
:10283000724D2B013C010E943051698F7A8F8B8F32
:102840009C8F28EB3EE145E85DE3C701B6010E949D
:10285000CD506B017C0129E73BE342E85DE3C50114
:10286000B4010E94CD509B01AC01C701B6010E948A
:10287000724D6B017C0120E737E746E55DE3698D2A
:102880007A8D8B8D9C8D0E94CD509B01AC01C70130
:10289000B6010E94724D2FE43FEA44EB5DE30E94D3
:1028A000714DD1016D937D938D939C93139769899D
:1028B0007A898B899C890E94534E4B015C016989FE
:1028C0007A898B899C890E9430516B017C016D85CE
:1028D0007E858F8598890E94534E6D877E878F876E
:1028E000988B6D897E898F89988D0E94534E698B54
:1028F0007A8B8B8B9C8BC301B2010E94534E6D8BE4
:102900007E8B8F8B988F29E73BE342E85DE3C7011D
:10291000B6010E94CD502D853E854F8558890E9475
:10292000CD502B013C0125E03EE64DED5CE3C501B9
:10293000B4010E94CD509B01AC01C301B2010E94C1
:10294000724D2B013C0128EB3EE145E85DE3C701F8
:10295000B6010E94CD5029893A894B895C890E9431
:10296000CD509B01AC01C301B2010E94724D2B01FD
:102970003C0120E737E746E55DE3C701B6010E9469
:10298000CD502D893E894F89588D0E94CD509B0195
:10299000AC01C301B2010E94724D2BE132E147E369
:1029A0005DE30E94724DF101648375838683978392
:1029B00025E03EE64DED5CE3C701B6010E94CD5037
:1029C0006B017C0129E73BE342E85DE3C501B4010B
:1029D0000E94CD502D853E854F8558890E94CD504F
:1029E0009B01AC01C701B6010E94714D6B017C01D6
:1029F00028EB3EE145E85DE3C501B4010E94CD50FE
:102A000029893A894B895C890E94CD509B01AC0190
:102A1000C701B6010E94714D6B017C0120E737E7C9
:102A200046E55DE3C501B4010E94CD502D893E8984
:102A30004F89588D0E94CD509B01AC01C701B60152
:102A40000E94714D25E039E646E45CE30E94724D38
:102A50002EEA37E441EE5CE30E94714DD1011896F5
:102A60006D937D938D939C931B97143009F0EEC06A
:102A7000F10184819581A681B781B05884839583C3
:102A8000A683B783E3C06D857E858F8598890E9474
:102A900030516B017C01A30192016D857E858F858C
:102AA00098890E94724D4B015C010E9430512B01AC
:102AB0003C012FEA35E244EA5DE3C701B6010E941A
:102AC000CD506B017C0123EC30EF41E95DE3C301A4
:102AD000B2010E94CD509B01AC01C701B6010E941A
:102AE000724D2FE43FEA44EB5DE30E94724DF10129
:102AF000608371838283938369897A898B899C89B6
:102B00000E94534E6B017C0169897A898B899C896B
:102B10000E9430512B013C016D857E858F859889FF
:102B20000E94534E6D877E878F87988BC501B401B5
:102B30000E94534E698B7A8B8B8B9C8B2FEA35E2EC
:102B400044EA5DE3C301B2010E94CD502D853E856C
:102B50004F8558890E94CD504B015C0126EA3BE924
:102B600044EC5CE3C701B6010E94CD509B01AC016F
:102B7000C501B4010E94724D4B015C0123EC30EFA2
:102B800041E95DE3C301B2010E94CD5029893A8930
:102B90004B895C890E94CD509B01AC01C501B401F9
:102BA0000E94724D26EF35E442E45DE30E94724DCF
:102BB000D10114966D937D938D939C93179726EA7C
:102BC0003BE944EC5CE3C301B2010E94CD502B0110
:102BD0003C012FEA35E244EA5DE3C701B6010E94F9
:102BE000CD502D853E854F8558890E94CD509B0143
:102BF000AC01C301B2010E94714D4B015C0123EC99
:102C000030EF41E95DE3C701B6010E94CD5029894B
:102C10003A894B895C890E94CD509B01AC01C5016A
:102C2000B4010E94714D20E030E0A9010E94724D74
:102C30002EEA37E441EE5CE30E94714DF1016087BA
:102C4000718782879387123009F412CFC1016C9685
:102C50000FB6F894DEBF0FBECDBFDF91CF911F91AD
:102C60000F91FF90EF90DF90CF90BF90AF909F902B
:102C70008F907F906F905F904F903F902F9008952E
:102C80002F923F924F925F926F927F928F929F927C
:102C9000AF92BF92CF92DF92EF92FF920F931F936A
:102CA000CF93DF93CDB7DEB7C255D1090FB6F894F5
:102CB000DEBF0FBECDBF2B969FAF8EAF2B971B01F4
:102CC000A98EBA8ECB8EDC8EED8EFE8E0F8F18A362
:102CD00029A33AA34BA35CA3182D298D3A8D4B8DC4
:102CE0005C8D29962CAF3DAF4EAF5FAF29978D8D90
:102CF0009E8DAF8DB8A189AF9AAFABAFBCAF29A104
:102D00003AA14BA15CA12F962CAF3DAF4EAF5FAF68
:102D10002F978FEF880D8230C8F025E0422E29E6EC
:102D2000522E26E4622E2CE3722E2BE132E147E391
:102D30005DE329A73AA74BA75CA73FE4C32E3FEA70
:102D4000D32E34EBE32E3DEBF32E13C0412C512C4C
:102D5000320126EF35E442E45DE329A73AA74BA709
:102D60005CA79FE4C92E9FEAD92E94EBE92E9DE340
:102D7000F92E89AC9AACABACBCAC123011F014306B
:102D800021F4B7FAB094B7F8B094823008F05AC082
:102D9000A701960129966CAD7DAD8EAD9FAD2997AB
:102DA0000E94714D6DA37EA38FA398A729A53AA574
:102DB0004BA55CA5C501B4010E94714D6B017C015E
:102DC0002EEA37E441EE5CE32F966CAD7DAD8EAD1F
:102DD0009FAD2F970E94724DA30192010E94714DE9
:102DE0002B013C01A70196010E9438509B01AC01C8
:102DF00066EA7BE984EC9CEB0E94564E0E94634D90
:102E00004B015C01A70196015058C301B2010E9419
:102E1000FC4D9B01AC01C501B4010E94724D9B01A8
:102E2000AC01505829A73AA74BA75CA720E030E097
:102E3000A90169A57AA58BA59CA50E942B501816FF
:102E4000BCF023C02EEA37E441EE5CE32F966CAD74
:102E50007DAD8EAD9FAD2F970E94724D4B015C01F1
:102E6000143009F482C180E090E0A0E8BFE381C1A2
:102E700027E137EB41ED58E369A57AA58BA59CA521
:102E80000E944F4E87FF15C00CC027E137EB41ED84
:102E900058EB69A57AA58BA59CA50E942B50181606
:102EA00044F4C301B20190582FEA35E244EA5DE3ED
:102EB0002CC069A57AA58BA59CA50E94534E4B01F9
:102EC0005C0169A57AA58BA59CA50E9430512B01B8
:102ED0003C0126EA3BE944EC5CE3C501B4010E94F5
:102EE000CD509B01AC01C701B6010E94714D6B0131
:102EF0007C012FEA35E244EA5DE3C301B2010E949E
:102F0000CD509B01AC01C701B6010E94564E6B012A
:102F10007C012FEA35E244EA5DE36DA17EA18FA139
:102F200098A50E94564E2B013C01A70196010E94D4
:102F300038506DA77EA78FA798ABA7019601C70150
:102F4000B6010E94CD504B015C01A3019201C30167
:102F5000B2010E94CD509B01AC01C501B4010E9499
:102F6000724D20E030E040E85FE30E94724D23E2C2
:102F70003CE54AE45FE30E94714D20E030E040E030
:102F80005FE30E94CD502DA53EA54FA558A90E94F4
:102F9000564E0E94634D4B015C01A7019601C3018F
:102FA000B2010E94FC4DA50194010E94714D6DA7D4
:102FB00079AB8DAF22969FAF22970E9430512FEAB6
:102FC00035E244EA5DE30E94CD509B01AC016DA166
:102FD0007EA18FA198A50E94714D23EC30EF41E9AD
:102FE0005DE30E94564E0E94D64D63966CAF7DAF56
:102FF0008EAF9FAF63972DA539A94DAD22965FADDA
:1030000022970E94714D6DA37DAB3C01A9A429A517
:103010003AA54BA55CA52D873E874F87588BEDA41D
:103020008E2D99A9ADAD2296BFAD2297898B9A8B33
:10303000AB8BBC8B262F862F972FD3018D8B9E8B2E
:10304000AF8BB88F812EBE84CF84D888FA880B8945
:103050001C893E894F89588DB101CE01019682DBD2
:1030600029962CAD3DAD4EAD5FAD299769817A8132
:103070008B819C810E94714D4B015C0129AD3AAD61
:103080004BAD5CAD6D817E818F8198850E94714DC5
:103090001B012C012F962CAD3DAD4EAD5FAD2F9792
:1030A00069857A858B859C850E94714D6B017C01B9
:1030B000A5019401C501B4010E94CD5069AF7AAF5A
:1030C0008BAF9CAFA2019101C201B1010E94CD5012
:1030D0009B01AC0169AD7AAD8BAD9CAD0E94724D88
:1030E0001B012C01A7019601C701B6010E94CD501A
:1030F0009B01AC01C201B1010E94724D0E943A5184
:103100002FE632E143E85AE30E942B501816BCF434
:1031100063962CAD3DAD4EAD5FAD63976BED7FE03B
:1031200089E490E40E94714D2DA539A94DAD2296F8
:103130005FAD22970E94714D6DA37DAB3C012BEDDD
:103140003FE049E450E46DA17DA9C3010E942B50EA
:1031500018160CF07AC32BED3FE049EC50E46DA15A
:103160007DA9C3010E94714D6DC380E090E0A0E88D
:10317000BFEB8DA39EA3AFA3B8A769A57AA58BA526
:103180009CA590582DA13EA14FA158A50E94CD50BD
:1031900029AD3AAD4BAD5CAD0E94724D69A77AA7DF
:1031A0008BA79CA7A3019201C501B4010E94714D98
:1031B0006DA77EA78FA798ABA701960129966CAD46
:1031C0007DAD8EAD9FAD29970E94714D69AB7AABF5
:1031D0008BAB9CAB9B01AC010E94CD5029966CAF90
:1031E0007DAF8EAF9FAF299720E537E746E55EE3D9
:1031F0006DA17EA18FA198A50E94CD506DAB7EAB35
:103200008FAB98AF29A53AA54BA55CA5CA01B9011A
:103210000E94CD506B017C012DA53EA54FA558A95C
:10322000CA01B9010E94CD509B01AC01C701B60192
:103230000E94724D29962CAD3DAD4EAD5FAD2997E4
:103240000E94724D24E237E84FE35AE30E94714D29
:1032500029EE30E844E85BE30E94714D2EED31E742
:103260004AE85BE30E94714D27EE3BEA43E35BE3F0
:103270000E94714D22E430E745ED5BE30E94714D01
:1032800028EB3EE145E05EE30E94564E6B017C0177
:1032900020E030E0A9010E944F4E87FF4AC020E0A5
:1032A00030E040E85FEB6DA17EA18FA198A50E9460
:1032B0004F4E81113EC06DA97EA98FA998AD0E9485
:1032C00030514B015C01A7019601C701B6010E9474
:1032D000CD509B01AC016FE873EE89E59CE30E9441
:1032E000714D0E943A519B01AC015058C701B60183
:1032F0000E94FC4D6B017C0120E737E746E55DE36A
:10330000C501B4010E94CD509B01AC016EE47FE188
:103310008BEE9DE30E94FC4D4B015C012BED3FE0E9
:1033200049EC50E4C701B6010E94724DA501940119
:103330003CC06DA97EA98FA998AD0E9430514B0168
:103340005C01A7019601C701B6010E94CD509B0107
:10335000AC016FE873EE89E59CE30E94714D0E9419
:103360003A519B01AC016DA17EA18FA198A50E944D
:10337000CD509B01AC01C701B6010E94FC4D6B0111
:103380007C0120E737E746E55DE3C501B4010E9413
:10339000CD509B01AC016EE47FE18BEE9DE30E947A
:1033A000FC4D9B01AC01C701B6010E94714D69AF94
:1033B0007AAF8BAF9CAF69AD7AAD8BAD9CAD0E94FF
:1033C000534E21966CAF7DAF8EAF9FAF219769AD05
:1033D0007AAD8BAD9CAD0E94305125966CAF7DAF20
:1033E0008EAF9FAF259728EB3EE145E85DE3219640
:1033F0006CAD7DAD8EAD9FAD21970E94CD5029E77C
:103400003BE342E85DE30E94724D2BEA37EC41E575
:103410005DE30E94724D4B015C016DA97EA98FA9ED
:1034200098AD0E9430512B013C0128EB3EE145E86C
:103430005DE325966CAD7DAD8EAD9FAD25970E9469
:10344000CD506B017C0120E737E746E55DE3C30122
:10345000B2010E94CD509B01AC01C701B6010E9490
:10346000724D6B017C01A5019401C501B4010E945C
:10347000CD502B013C01A7019601C701B6010E9466
:10348000CD509B01AC01C301B2010E94724D29963F
:103490002CAD3DAD4EAD5FAD29970E94714D0E94A0
:1034A0003A512B013C0129A93AA94BA95CA96DA16C
:1034B0007EA18FA198A50E94CD50A30192010E94E8
:1034C000FC4D2B013C01A5019401C701B6010E94EE
:1034D000FC4D9B01AC01C301B2010E94714D69AB6F
:1034E0007AAB8BAB9CAB0E94305129966CAF7DAF11
:1034F0008EAF9FAF299769A97AA98BA99CA90E9431
:10350000534E6B017C0120E030E040E85FEB6DA1A1
:103510007EA18FA198A50E944F4E29A93AA94BA937
:103520005CA98111A5C06DA97EA98FA998AD0E9443
:10353000724D0E94534E2B013C0129E73BE342E8C8
:103540005DE3C701B6010E94CD504B015C0120E74D
:1035500037E746E55DE3C301B2010E94CD509B0110
:10356000AC01C501B4010E94724D4B015C0128EB16
:103570003EE145E85DE3C701B6010E94CD502196CA
:103580002CAD3DAD4EAD5FAD21970E94CD509B015E
:10359000AC01C501B4010E94724D6B017C0128EBA6
:1035A0003EE145E85DE329966CAD7DAD8EAD9FAD06
:1035B00029970E94CD5025962CAD3DAD4EAD5FAD07
:1035C00025970E94CD509B01AC01C701B6010E9416
:1035D000714D6B017C01905825E03EE64DED5CE3BA
:1035E0000E94CD504B015C0169A57AA58BA59CA5D5
:1035F00090582DA53EA54FA558A90E94CD509B01DE
:10360000AC01C501B4010E94724D4B015C0125E083
:103610003EE64DED5CE36DA57EA58FA598A90E94C1
:10362000CD502B013C01A701960169A57AA58BA578
:103630009CA50E94CD509B01AC01C301B2010E9428
:10364000724D9B01AC01C501B4010E94564E6B0145
:103650007C019B01AC0169A57AA58BA59CA50E9464
:10366000CD5025E03EE64DED5CE30E94724DBBC0BF
:103670006DA97EA98FA998AD0E94724D0E94534EEC
:103680002B013C0129E73BE342E85DE3C701B601BA
:103690000E94CD504B015C0120E737E746E55DE332
:1036A000C301B2010E94CD509B01AC01C501B40120
:1036B0000E94724D4B015C0128EB3EE145E85DE361
:1036C000C701B6010E94CD5021962CAD3DAD4EAD47
:1036D0005FAD21970E94CD509B01AC01C501B401A3
:1036E0000E94724D6B017C0128EB3EE145E85DE3F1
:1036F00029966CAD7DAD8EAD9FAD29970E94CD50C2
:1037000025962CAD3DAD4EAD5FAD25970E94CD50B9
:103710009B01AC01C701B6010E94714D6B017C0198
:10372000905825E03EE64DED5CE30E94CD504B0104
:103730005C0129A53AA54BA55CA56DA17EA18FA131
:1037400098A50E94CD502DA53EA54FA558A90E9431
:10375000CD509B01AC01C501B4010E94724D4B01DB
:103760005C0125E03EE64DED5CE36DA57EA58FA5F1
:1037700098A90E94CD502B013C01A70196016DA193
:103780007EA18FA198A50E94CD5029A53AA54BA551
:103790005CA50E94CD509B01AC01C301B2010E9407
:1037A000714D9B01AC01C501B4010E94564E6B01E5
:1037B0007C019B01AC0169A57AA58BA59CA50E9403
:1037C000CD504B015C0125E03EE64DED5CE36DA183
:1037D0007EA18FA198A50E94CD509B01AC01C5018F
:1037E000B4010E94714D90582DA53EA54FA558A932
:1037F0000E94564EA70196010E94FC4D2DA13EA1AC
:103800004FA158A50E94CD5069A77AA78BA79CA766
:1038100029A93AA94BA95CA96DA17EA18FA198A560
:103820000E94CD506DA779AB8DAF22969FAF2297A6
:103830002DA13EA14FA158A569AD7AAD8BAD9CAD30
:103840000E94CD506DA37DAB3C0129A53AA54BA5A7
:103850005CA52B96AEADBFAD2B972D933D934D93AD
:103860005C9313978DA599A9ADAD2296BFAD229714
:103870002B96EEADFFAD2B9784839583A683B783FC
:103880008DA19DA9D30180879187A287B387CF019E
:10389000CE5ADF4F0FB6F894DEBF0FBECDBFDF911B
:1038A000CF911F910F91FF90EF90DF90CF90BF903D
:1038B000AF909F908F907F906F905F904F903F90D0
:1038C0002F9008952F923F924F925F926F927F9226
:1038D0008F929F92AF92BF92CF92DF92EF92FF9220
:1038E0000F931F93CF93DF93CDB7DEB7CA55D1099E
:1038F0000FB6F894DEBF0FBECDBF66969FAF8EAFFA
:1039000066972C967FAF6EAF2C971A012A960CAF54
:103910001DAF2EAF3FAF2A9767964FAF6797242F03
:1039200041E0CE0101960E943611822CA980BA8016
:10393000CB80DC80ED80FE800F81188529853A855B
:103940004B855C852C966EAD7FAD2C97CE010D9688
:103950000E94B2134D845E846F84788889899A8925
:10396000AB89BC8960968CAF9DAFAEAFBFAF60979F
:103970008CE0FE013D96DE01599601900D928A95EC
:10398000E1F720E030E0A9012A966CAD7DAD8EAD67
:103990009FAD2A970E942B5025E33AEF4EE85CE357
:1039A00018163CF42A966CAD7DAD8EAD9FAD2A976E
:1039B00007C02A966CAD7DAD8EAD9FAD2A9790580D
:1039C0000E94CD506B017C012DEC3CEC4CEC5EE395
:1039D0000E942B5018163CF42DECC22E2CECD22E4B
:1039E000ED2C2EE3F22E60962CAD3DAD4EAD5FADCD
:1039F0006097C301B2010E9438504B015C0120E086
:103A000030E040E05FE3C701B6010E94CD500E9464
:103A100030519B01AC010E94724DA50194010E949E
:103A2000CD5064966CAF7DAF8EAF9FAF64976096BC
:103A30002CAD3DAD4EAD5FAD6097C301B2010E94AC
:103A4000564E0E94274E4B015C0120E030E0A90158
:103A50000E942B50181624F0B7FAB094B7F8B0941F
:103A6000A70196016BED7FE089E490E40E94714D1F
:103A700020E030E040E05FE30E94CD506B966CAFF9
:103A80007DAF8EAF9FAF6B97A7019601C501B401C3
:103A90000E94714D9B01AC016B966CAD7DAD8EADFE
:103AA0009FAD6B970E94714D4B015C010E9430519C
:103AB0009B01AC0164966CAD7DAD8EAD9FAD6497FE
:103AC0000E94CD506B017C0120E030E0A9010E94F2
:103AD0002B50181624F0F7FAF094F7F8F094C5017B
:103AE000B4010E94534E9B01AC0164966CAD7DAD58
:103AF0008EAD9FAD64970E94CD504B015C0120E0DC
:103B000030E0A9010E942B50181624F0B7FAB094A7
:103B1000B7F8B09420E030E0A9012A966CAD7DADF5
:103B20008EAD9FAD2A970E942B50181634F482E078
:103B30002816310489F481E006C032E023163104EE
:103B400009F0D6C180E0AFEFBFEF2296BFAFAEAFB6
:103B500022972FEF3FEF11C093E0291631048CF12B
:103B6000B3E02B16310489F481E0A1E0B0E02296A5
:103B7000BFAFAEAF229721E030E024963FAF2EAF2B
:103B8000249731E03FAF1DAE15C024E0221631046A
:103B900009F0ABC181E0AFEFBFEF2296BFAFAEAF90
:103BA000229721E030E024963FAF2EAF24971FAE3E
:103BB00031E03DAF8823C1F08DAD9FAD9DAF8FAF9C
:103BC00013C02A94232809F090C1AFEFBFEF2496C9
:103BD000BFAFAEAF249721E030E022963FAF2EAFCB
:103BE000229731E03FAF1DAE24962EAD3FAD249716
:103BF000B901330F880B990B0E94F14EA701960172
:103C00000E94CD50A30192010E94724D26966CAF86
:103C10007DAF8EAF9FAF26972296AEADBFAD2297F8
:103C2000BD01BB0F880B990B0E94F14EA5019401B9
:103C30000E94CD5060962CAD3DAD4EAD5FAD60970E
:103C40000E94724D2A966CAF7DAF8EAF9FAF2A97C0
:103C500066962EAD3FAD669722963FAF2EAF229768
:103C6000212C312C9CE3992E3DAD31703DAF8FEF6F
:103C7000281A380A26968CAD9DADAEADBFAD2697FD
:103C8000898F9A8FAB8FBC8F2A968CAD9DADAEADD0
:103C9000BFAD2A978D8F9E8FAF8FB8A34D865E865E
:103CA0006F86788A60968CAD9DADAEADBFAD6097E6
:103CB000898B9A8BAB8BBC8B9F9295EF9F93A2ECD9
:103CC000AF93BFE8BF93B101032C000C880B990B95
:103CD0000E94F14E20E030E040EC50E40E94564E4D
:103CE0009F938F937F936F932DAD2F938DB79EB737
:103CF0000C970FB6F8949EBF0FBE8DBFADB7BEB781
:103D000011968CE0FE01799601900D928A95E1F76B
:103D1000AD84BE84CF84D888E988FA880B891C8951
:103D20002D893E894F89588D2C966EAD7FAD2C978D
:103D3000CE0185960E94641167968FAC6797ADA0FF
:103D4000BEA0CFA0D8A4E9A4FAA40BA51CA52DA5BC
:103D50003EA54FA558A92C966EAD7FAD2C97CE01F0
:103D6000C1960E9440168CE0FE01F1962296AEADFF
:103D7000BFAD229701900D928A95E1F72296AEADE4
:103D8000BFAD22971C962296BFAFAEAF22970FB65B
:103D9000F894DEBF0FBECDBF36E02316310409F024
:103DA00066CF66968EAD9FAD6697885B9F4F9EAF40
:103DB0008DAF212C312C8CE3982E9FAD91709FAF4D
:103DC000AFEF2A1A3A0A26968CAD9DADAEADBFADC7
:103DD0002697898F9A8FAB8FBC8F2A968CAD9DAD1D
:103DE000AEADBFAD2A978D8F9E8FAF8FB8A34D8696
:103DF0005E866F86788A60968CAD9DADAEADBFADA8
:103E00006097898B9A8BAB8BBC8B9F9295EF9F931E
:103E1000A2ECAF93BFE8BF93B101032C000C880B59
:103E2000990B0E94F14E20E030E040EC50E40E94FB
:103E3000564E9F938F937F936F932FAD2F938DB794
:103E40009EB70C970FB6F8949EBF0FBE8DBFADB74F
:103E5000BEB711968CE0FE013D9601900D928A95B9
:103E6000E1F7A98CBA8CCB8CDC8CED8CFE8C0F8DA1
:103E700018A129A13AA14BA15CA12C966EAD7FADF2
:103E80002C97CE0185960E94641167968FAC679738
:103E9000ADA0BEA0CFA0D8A4E9A4FAA40BA51CA5F0
:103EA0002DA53EA54FA558A92C966EAD7FAD2C979C
:103EB000CE01C1960E9440168CE0FE01F196ADAD98
:103EC000BEAD01900D928A95E1F7ADADBEAD1C96E9
:103ED000BEAFADAF0FB6F894DEBF0FBECDBF36E0BC
:103EE0002316310409F06CCF28C01DAE1FAE7CCE66
:103EF00083E028163104A4F42A94232809F074CE10
:103F00008FEF9FEF24969FAF8EAF2497A1E0B0E094
:103F10002296BFAFAEAF22971FAEB1E0BDAF64CE69
:103F2000A3E02A16310411F480E01FCEB4E02B1672
:103F3000310409F059CE80E02ECE66968EAD9FAD4D
:103F40006697C65ADF4F0FB6F894DEBF0FBECDBFDF
:103F5000DF91CF911F910F91FF90EF90DF90CF9065
:103F6000BF90AF909F908F907F906F905F904F9099
:103F70003F902F9008958F929F92AF92BF92EF92B1
:103F8000FF920F931F93CF93DF93EC012296E12CC6
:103F9000F12C0AE714E420E030E040EA51E461E06B
:103FA000CE010E94A52B20E030E0A90162E0CE0105
:103FB0000E94A52B0E949C4C24E1822E912CA12CC6
:103FC000B12CA50194010E94064D0E94F14E9B0167
:103FD000AC0161E0CE010E94142B0E949C4CA50113
:103FE00094010E94064D9B01AC0125503109410905
:103FF0005109AAE0B0E00E94224D665A7F4F8F4FD0
:104000009F4F0E94F14E9B01AC0162E0CE010E94E5
:10401000142BDF91CF911F910F91FF90EF90BF90E4
:10402000AF909F908F900895282F30917F06313266
:1040300008F04AC080917E068111FCCF90919505D1
:1040400042E040937E0620937D062FEF2093730578
:104050001092720530937105E5E7F5E0A1E5B5E052
:1040600020E0321721F041914D932F5FFACF10924B
:10407000500520915005990F922B909350059091E7
:104080007C06913061F410927C06909150059093DB
:10409000BB009091BC0093FDF8CF95EC01C095EE6C
:1040A0009093BC0090917E069230E1F3909173055D
:1040B0009F3F79F080917305803241F080917305C4
:1040C000803331F084E005C081E003C082E001C0AC
:1040D00083E01092800610927F0610927405089576
:1040E00090917E069111FCCF982F813208F090E2DA
:1040F00081E080937E0680937D062FEF20937305E9
:1041000010927205290F20937105809350058091BC
:10411000500582658093500580917C06813061F462
:1041200010927C06809150058093BB008091BC006A
:1041300083FDF8CF85EC01C085EE8093BC008091B3
:104140007E068130E1F380917205891710F4909119
:104150007205E1E5F5E0A0E3B5E080E0891721F024
:1041600021912D938F5FFACF109282068093810662
:104170000895DF92EF92FF920F931F93CF93DF93F7
:10418000EC0160E583D760E7CE0180D781E08093C2
:10419000740589E2809395051092800610927F063F
:1041A00060E083E896E0F5D261E083E896E0F1D242
:1041B00081E03ADF04E110E06AE070E080E090E046
:1041C0000E94D42F64E1CE0161D780FD03C001506D
:1041D000110991F764E1CE0149D78CE090E080DFCE
:1041E0008E017E018CE0E80EF11C85E1D82E8091D5
:1041F000810690E020918206821B9109181619060B
:1042000054F483E896E07DD2F80181938F01EE1596
:10421000FF0559F70AC061E070E080E090E00E947D
:10422000D42FDA94D110E3CFECCF6A857B85762743
:104230006727762788818877883529F480E090E0A1
:104240000E94EF4E04C060E070E080E89FEBDF91D9
:10425000CF911F910F91FF90EF90DF9008952F92D3
:104260003F924F925F926F927F928F929F92AF9206
:10427000BF92CF92DF92EF92FF920F931F93CF9353
:10428000DF93CDB7DEB762970FB6F894DEBF0FBEEF
:10429000CDBF9A8B898B7A83698389EC97E00E94E2
:1042A0003E2DE12CF12C09891A8906531F4F2989CB
:1042B0003A8924533F4F3C872B8789899A898353B6
:1042C0009F4F9E878D87E989FA89EC52FF4FF88BC3
:1042D000EF8729883A88F0ED2F0E311C29813A8129
:1042E000E216F3060CF003C189899A8989529F4F1F
:1042F0009C838B83C988DA889EECC90ED11CE9891E
:10430000FA89E552FF4FFE83ED8329893A892E52BF
:104310003F4F38872F8389899A8981529F4F9A8787
:10432000898789EC97E00E94C02C892B09F4D5C0BD
:10433000F801A080B18089EC97E00E949E2C298929
:104340003A89A20EB31EF501E453FF4F8083F801B2
:1043500080819181009731F4EB85FC8520812535A2
:1043600009F0BBC00196F801918380830B97C9F6D1
:1043700011821082ED85FE858081813509F05BC058
:10438000F10160817181072E000C880B990B0E944E
:10439000F14E20E030E040E058E30E94CD5020E0B4
:1043A00030E040E851E40E94CD502B013C01EF8108
:1043B000F88560817181072E000C880B990B0E9493
:1043C000F14E20E030E040E058E30E94CD5020E084
:1043D00030E040E851E40E94CD504B015C01F60111
:1043E00060817181072E000C880B990B0E94F14EA1
:1043F00020E030E040E058E30E94CD5020E030E083
:1044000040E851E40E94CD50E985FA8560837183CC
:1044100082839383E989FA89ED51FF4F408251826B
:1044200062827382E989FA89E951FF4F8082918221
:10443000A282B38276CF833509F073CFEF85F889F6
:1044400060817181072E000C880B990B0E94F14E40
:1044500020E030E04AEA53E40E94564E0E94BE4EED
:104460006C5171096330710508F05BCFF101A080D8
:10447000B180F60160817181072E000C880B990BC9
:104480000E94F14E20E030E040E058E30E94CD5021
:1044900020E030E044E353E40E94CD50EB81FC8106
:1044A0006083718382839383B501BB0C880B990B66
:1044B0000E94F14E20E030E040E058E30E94CD50F1
:1044C00020E030E044E353E40E94CD50ED81FE81D2
:1044D000608371838283938324CF61E070E080E006
:1044E00090E00E94D42FFFEFEF1AFF0AF7CE6296FA
:1044F0000FB6F894DEBF0FBECDBFDF91CF911F91F5
:104500000F91FF90EF90DF90CF90BF90AF909F9072
:104510008F907F906F905F904F903F902F90089575
:104520002F923F924F925F926F927F928F929F92C3
:10453000AF92BF92CF92DF92EF92FF920F931F93B1
:10454000CF93DF93CDB7DEB762970FB6F894DEBF97
:104550000FBECDBF4C016D872A8B632E342E252EC6
:10456000772473942C0189EC480E511C272D4D851E
:10457000B201CE0101960E94361125E33AEF4EE8D2
:104580005CE369857A858B859C850E94564E5B012C
:104590006C0125E33AEF4EE85CE36D817E818F810B
:1045A00098850E94564E6E877F87888B998B25E36E
:1045B0003AEF4EE85CE369817A818B819C810E94AD
:1045C000564E9B01AC012F923F926F928A898F9336
:1045D000EE84FF8408891989672DC4010E94CF35B4
:1045E00073940F900F900F900F9085E07812BECFCC
:1045F00062960FB6F894DEBF0FBECDBFDF91CF91AC
:104600001F910F91FF90EF90DF90CF90BF90AF90F0
:104610009F908F907F906F905F904F903F902F90E2
:10462000089580E090E0892B21F00E94E72C811111
:1046300019C080E090E0892B21F00E94DE2C8111CE
:1046400014C080E090E0892B21F00E94D52C8111CC
:104650000FC080E090E0892B81F00E94CC2C81116A
:104660000AC008950E940000E4CF0E940000E9CF34
:104670000E940000EECF0C940000089585ED809319
:10468000BC008091BC0084FDFCCF10927E06089592
:104690004091B605262F30E0240F311D213231051F
:1046A000DCF420917E062430C9F4FC0180E090E027
:1046B000861758F43091B6052191DC01AA56BA4FFD
:1046C000A30FB11D2C930196F3CF8091B605680F0F
:1046D0006093B60580E0089581E0089582E0089532
:1046E00008950895E091820680918106E81730F4DC
:1046F000F0E0E05DFA4F808190E008958FEF9FEF4A
:1047000008959091820680918106981750F4E92FC0
:10471000F0E0E05DFA4F208130E09F5F90938206E9
:1047200002C02FEF3FEFC90108958091810690E00C
:1047300020918206821B91090895CF92DF92EF9219
:10474000FF920F931F93CF93DF937C01CB018A01DC
:1047500020917405222389F0EB016B01C40ED51E54
:10476000CC15DD0561F06991D701ED91FC910190C7
:10477000F081E02DC7011995F3CF642F89DFC801BF
:10478000DF91CF911F910F91FF90EF90DF90CF902D
:104790000895CF93DF931F92CDB7DEB76983209141
:1047A00074052223D1F020917F06203240F021E0D1
:1047B00030E0FC013383228380E090E014C08091DC
:1047C0008006E82FF0E0EB58FA4F998190838F5FD5
:1047D0008093800680937F0604C061E0CE0101963D
:1047E00057DF81E090E00F90DF91CF91089580E056
:1047F00090E00895CF93DF93EC0189859A85DC01E1
:10480000ED91FC910284F385E02D19950196A9F7AD
:10481000DF91CF910895CF93DF931F92CDB7DEB78D
:104820006983DC0119968D919C911A97DC01ED91B9
:10483000FC910280F381E02D41E050E0BE016F5F0A
:104840007F4F19950F90DF91CF91089561157105F4
:1048500061F0DC0119968D919C911A97DC01ED9124
:10486000FC910280F381E02D199480E090E008959E
:104870008F929F92AF92BF92CF92DF92EF92FF9270
:104880000F931F93CF93DF938C017B016A018FB746
:10489000F8948090CD0A9090CE0AA090CF0AB09064
:1048A000D00A8FBFC0E0D0E0D80119968D919C91BD
:1048B0001A97DC01ED91FC910284F385E02D1995A6
:1048C0008F3FBFEF9B0799F0E114F10421F0F7014E
:1048D000EC0FFD1F808321968FB7F8948090CD0A4E
:1048E0009090CE0AA090CF0AB090D00A8FBFCC157E
:1048F000DD05D4F42FB7F8948091CD0A9091CE0ABB
:10490000A091CF0AB091D00A2FBF88199909AA099E
:10491000BB09F801458156816781708548175907A1
:104920006A077B0708F0C0CFCE01DF91CF911F91BE
:104930000F91FF90EF90DF90CF90BF90AF909F903E
:104940008F900895FC01838594850895CF93DF931C
:10495000EC016F3F2FEF720719F48A8D9B8D10C009
:104960001C861B8645E40E94172F8F3F2FEF92076E
:1049700039F481E090E09C878B878FEF9FEF0AC02E
:104980002B853C85232B31F497FF04C09F779195AD
:1049900081959109DF91CF910895CF93DF93EC0139
:1049A0006F3F2FEF720719F489899A890DC01C8611
:1049B0001B864CE30E94172F8F3F2FEF920721F4A5
:1049C00021E030E03C872B872B853C85232B31F47D
:1049D00092FF04C09B7F919581959109DF91CF91C2
:1049E0000895CF93DF93EC016F3F2FEF720719F417
:1049F0008F85988910C01C861B864AE30E94172F5A
:104A00008F3F2FEF920739F481E090E09C878B87EE
:104A10008FEF9FEF0AC02B853C85232B31F497FF46
:104A200004C09F77919581959109DF91CF91089569
:104A3000CF93DF93EC016F3F2FEF720719F48D8551
:104A40009E850DC01C861B8648E30E94172F8F3F52
:104A50002FEF920721F421E030E03C872B872B8554
:104A60003C85232B31F497FF04C09F779195819566
:104A70009109DF91CF910895CF93DF936F3F2FEF8F
:104A8000720721F4FC01878990E00EC0EC011C86BE
:104A90001B8642E40E946E318F3FFFEF9F0721F497
:104AA00021E030E03C872B87DF91CF910895CF93B1
:104AB000DF936F3F2FEF720721F4FC01848990E0B0
:104AC0000EC0EC011C861B864FE30E946E318F3FA7
:104AD000FFEF9F0721F421E030E03C872B87DF9137
:104AE000CF910895CF93DF936F3F2FEF720721F49B
:104AF000FC01838990E00EC0EC011C861B864EE30E
:104B00000E946E318F3FFFEF9F0721F421E030E0DC
:104B10003C872B87DF91CF9108950F93CF93DF933D
:104B2000EC019C01235F3F4F0FE048E30E94E0301F
:104B30000F9739F081E090E09C878B878FEF9FEF94
:104B400004C01C861B868FE090E0DF91CF910F910F
:104B5000089520E848E20C94853121E047E30C9465
:104B6000853120E047E30C948531242F48E20C94F2
:104B7000853121E041E20C948531AF92BF92CF9212
:104B8000DF92EF920F931F93CF93DF9300D0CDB7B7
:104B9000DEB75C016B836A0157FF05C0D194C194F5
:104BA000D1086894D7F82983EE24E3948E010F5F2F
:104BB0001F4F29E241E0BE016D5F7F4FC5015BD40D
:104BC000F5018381882319F0D982CA8202C0DA8272
:104BD000C9828B818E3F49F402E09E012F5F3F4FD7
:104BE0004EE26EEFC501E4D40CC082E0E82E8E01E7
:104BF0000F5F1F4F2EE241E0BE016D5F7F4FC50189
:104C00003AD481E090E00F900F900F90DF91CF9118
:104C10001F910F91EF90DF90CF90BF90AF900895CC
:104C2000EF920F931F93CF93DF93CDB7DEB7289703
:104C30000FB6F894DEBF0FBECDBF688757FF04C024
:104C400051954195510950680983FC0163816623A0
:104C500039F05A834B831C821D823E832F8306C00A
:104C60005B834A831D821C823F832E8328852E3FCF
:104C700041F407E09E012F5F3F4F49E26EEF98D469
:104C80000BC027E0E22E8E010F5F1F4F29E241E0AB
:104C9000BE01685F7F4FEFD381E090E028960FB6AA
:104CA000F894DEBF0FBECDBFDF91CF911F910F9162
:104CB000EF9008954F925F926F927F928F929F92A2
:104CC000AF92BF92CF92DF92EF92FF920F931F931A
:104CD000CF93DF93CDB7DEB75C01942F4801CDB6FB
:104CE000DEB64DB75EB787E0989F40195109112491
:104CF0000FB6F8945EBF0FBE4DBF0DB71EB70F5F66
:104D00001F4FF8012901340140E04917B1F1D201E8
:104D10002D913C91119737FF06C0319521953109AE
:104D200030682D933C938114910429F0D3013C9178
:104D300011968C9102C030E080E0D2015C91119616
:104D40002C91B2E04B0E511CD5011396FC90FF2024
:104D500029F0F22E252F582F832F02C0F52E532F26
:104D6000E082F182228313821482558386834F5F0F
:104D70003796B2E06B0E711CC8CF87E0E82E29E2AF
:104D8000C50179D30FB6F894DEBE0FBECDBEDF915C
:104D9000CF911F910F91FF90EF90DF90CF90BF9038
:104DA000AF909F908F907F906F905F904F900895FD
:104DB000FC01848DDF01A80FB11DA35ABF4F2C91B8
:104DC000848D90E001968F739927848FA689B78987
:104DD0002C93A089B1898C91837080648C93938D7E
:104DE000848D981306C00288F389E02D80818F7D21
:104DF000808308951F920F920FB60F9211240F9087
:104E00000FBE0F901F9018951F920F920FB60F9222
:104E100011240BB60F922F933F934F935F936F9391
:104E20007F938F939F93AF93BF93EF93FF93809163
:104E3000B900887F803609F49CC068F5883209F48F
:104E40005BC090F4803109F454C038F4882309F42D
:104E5000F6C0883009F44DC0F5C0883109F44CC063
:104E6000803209F45DC0EEC0803409F468C048F4B3
:104E7000803309F455C0883309F0E4C0809373058A
:104E8000D8C0803509F44FC0883509F45DC0883436
:104E900009F0D8C0D6C0883909F4C7C0A8F488374B
:104EA00009F467C038F4883609F463C0803709F420
:104EB00060C0C8C0883809F4B8C0803909F45FC040
:104EC000803809F0BFC05BC0803B09F486C038F46D
:104ED000803A09F466C0883A09F47FC0B3C0803CC8
:104EE00009F4A7C0883C09F4A4C0883B09F48AC02F
:104EF000A9C08091500510C09091720580917105F4
:104F0000981770F5E091720581E08E0F809372051D
:104F1000F0E0EF5AFA4F80818093BB0085EC86C0A9
:104F2000809373058EC0E091720581E08E0F8093AF
:104F300072058091BB00F0E0EF5AFA4F80839091A8
:104F40007205809171056EC0E091720581E08E0F4F
:104F5000809372058091BB00F0E0EF5AFA4F808396
:104F600080917D0681116DC081E080937C0684EA8A
:104F700061C083E080937E061092D805CFCF8091E8
:104F8000D805803208F051C0E091D80581E08E0F3D
:104F90008093D8058091BB00F0E0E854FA4F8083FD
:104FA000BDCF85EC8093BC0010927E068091D80521
:104FB000803230F4E091D805F0E0E854FA4F1082E6
:104FC0006091D80570E0E0917806F091790688EB61
:104FD00095E019951092D80535C084E080937E063F
:104FE0001092B7051092B605E0917A06F0917B0613
:104FF00019958091B605811105C081E08093B605B1
:1050000010929605E091B70581E08E0F8093B70569
:10501000F0E0EA56FA4F80818093BB009091B7058B
:105020008091B605981708F479CF85E88093BC0085
:1050300009C085EC8093BC0010927E0603C01092DC
:1050400073051CDBFF91EF91BF91AF919F918F9101
:105050007F916F915F914F913F912F910F900BBE78
:105060000F900FBE0F901F901895089581E08093C8
:10507000740589E2809395051092800610927F0650
:1050800083E896E086DB81E00C941420CF93EEDF7A
:1050900081E090E025D8C5E18091810690E02091E3
:1050A0008206821B9109181619062CF483E896E0F3
:1050B00028DBCF91089561E070E080E090E074D744
:1050C000C15051F7F3CFFF920F931F93CF93DF930C
:1050D00000D01F92CDB7DEB78C01F62ECED7892B2C
:1050E00009F1D801ED91FC910280F381E02D44E0BB
:1050F00050E0BE016F5F7F4FC8011995049791F48E
:1051000089818F110FC09A81923061F49B81890F40
:105110008E5F80952C81821305C0F801948381E015
:1051200090E002C080E090E00F900F900F900F9001
:10513000DF91CF911F910F91FF90089580916608A4
:1051400090916708DC01ED91FC910190F081E02DD8
:1051500060EF19940F931F93CF93DF93EC0106E652
:1051600018E0D8018D919C916C2F6F77DC01ED9147
:10517000FC910190F081E02D1995F80180819181D9
:10518000CC0FCD2FCC1FDD0B6C2F6F77DC01ED9199
:10519000FC910190F081E02DDF91CF911F910F9153
:1051A00019948091660890916708DC01ED91FC915B
:1051B0000190F081E02D67EF1994CF92DF92EF928A
:1051C000FF92CF93DF93EC016A017B01E889F989B3
:1051D00082E080834115514E61057105B1F060E0B8
:1051E00079E08DE390E0A70196010E94324DDA014B
:1051F000C9010197A109B109B695A795979587951A
:105200009C01211580E13807A8F0E889F98910820E
:1052100060E874E88EE190E0A70196010E94324DAB
:10522000DA01C9010197A109B109B695A79597952A
:1052300087959C01EC85FD853083EE85FF85208375
:10524000188EEC89FD8986E08083EA89FB8980815C
:1052500080618083EA89FB89808188608083EA8914
:10526000FB89808180688083EA89FB8980818F7DCA
:105270008083DF91CF91FF90EF90DF90CF900895E2
:1052800090E0FC01E65FFD4F2491FC01EC53FE4FE2
:105290008491882399F090E0880F991FFC01E655CE
:1052A000FE4FA591B491FC01E057FE4F859194917A
:1052B0008FB7F894EC91E22BEC938FBF0895CF93C6
:1052C000DF93009771F0FC0101900020E9F731971E
:1052D000AF01481B590BBC018BED95E0F6D2EC01F8
:1052E00002C0C0E0D0E042E050E06DED74E08BED34
:1052F00095E0EBD28C0F9D1FDF91CF91089581E057
:105300008093830910926B0810926C0810926D08BC
:10531000EEE6F8E0119288E0EE3AF807D9F710923D
:10532000AE081092B0081092AF08E0919009F09189
:105330009109309709F01995109283090895CF9338
:10534000DF93C6E6D8E088819981DC01ED91FC917C
:105350000190F081E02D69EF199588819981DC0138
:10536000ED91FC910190F081E02D62E0199588812A
:105370009981DC01ED91FC910190F081E02D66E0D6
:10538000DF91CF911994CF93DF93D8DE8091660897
:1053900090916708DC01ED91FC910190F081E02D86
:1053A00069E719958091660890916708A09169084E
:1053B000B0916A08EC01E881F9810190F081E02D5B
:1053C0006C9119958091660890916708A091690881
:1053D000B0916A08EC01E881F9810190F081E02D3B
:1053E00011966C911995C2E080916808C81758F41D
:1053F000E0916908F0916A08EC0FF11D808190E05E
:10540000A9DECF5FF1CFDF91CF91CBCEFF920F938B
:105410001F93CF93DF93182FF62E072F8FDE8091E7
:10542000660890916708DC01ED91FC910190F08194
:10543000E02D61E71995CF2DD02FCE01810F911D61
:105440008C01C017D10721F0899190E083DEF9CF5C
:10545000DF91CF911F910F91FF90A3CEA09166088D
:10546000B0916708ED91FC9111970190F081E02DCA
:10547000682FCD0119944F925F926F927F928F9215
:105480009F92AF92BF92CF92DF92EF92FF920F93D3
:105490001F93CF93DF93CDB7DEB727970FB6F8945E
:1054A000DEBF0FBECDBF6C01562E672E742EB22EFE
:1054B000DC01ED91FC910680F781E02D19958E2C91
:1054C000912C872D7E9C800D112494E0F92EF80EEE
:1054D0008FEF89838A838EEF8B83FC8283E88D83B1
:1054E000BE82EF82D601ED91FC910190F081E02D1A
:1054F00047E050E0BE016F5F7F4FC601199581E81C
:105500008B0DB82EBE0CFB0C5801052D162DF80185
:10551000E70DF11D3F01D601ED91FC910615170530
:1055200009F128010480F581E02DD8016D918D01EC
:10553000C6011995D601ED91FC910190F081E02D05
:10554000A401B501C6011995F2018081F80EF5019B
:1055500080E0E81621F09191F90E8F5FFACFA80C48
:10556000B91CD9CF6F2D60950480F581E02DC6015F
:105570001995D601ED91FC910084F185E02DC601CD
:10558000199527960FB6F894DEBF0FBECDBFDF91F9
:10559000CF911F910F91FF90EF90DF90CF90BF9030
:1055A000AF909F908F907F906F905F904F900895F5
:1055B000CF92DF92EF92FF920F931F93CF93DF93DF
:1055C000EC01162FF42E6901E881F9810680F7813C
:1055D000E02D199583E0E82E96014F2D612FCE0125
:1055E0007DD5E881F9810084F185E02DCE01199502
:1055F0001C821E3F71F08A81882359F0612FCE01F1
:10560000DF91CF911F910F91FF90EF90DF90CF909E
:105610005ACD81E090E0DF91CF911F910F91FF90E3
:10562000EF90DF90CF9008954F925F926F927F92AC
:105630008F929F92AF92BF92CF92DF92EF92FF92A2
:105640000F931F93CF93DF936C0149015A012701F8
:105650003801662359F0633008F062E0C62FD0E0CD
:105660008E01025F1F4F613031F504C00FE010E082
:10567000C1E0D0E020E030E048E452E4C501B401EC
:105680000E942B5018168CF020E030E048E452ECD9
:10569000C501B4010E944F4E87FF0DC0812C912C93
:1056A00048E4A42E42ECB42E06C0812C912C38E4A0
:1056B000A32E32E4B32EC301B2010E94BE4E2B01D1
:1056C0003C01F601EC0FFD1FE654FF4F6081062EF2
:1056D000000C770B880B990B0E94F14EA5019401E9
:1056E0000E94CD502D96CC0FDD1FCC0FDD1FCC0DB1
:1056F000DD1DC758DF4F288139814A815B810E94B7
:10570000724D20E030E044E353E40E94724D23E602
:105710003BE046E351E40E94CD500E94BE4E920110
:10572000AB01602FC601DF91CF911F910F91FF90C8
:10573000EF90DF90CF90BF90AF909F908F907F9031
:105740006F905F904F900C9430344F925F926F92B5
:105750007F928F929F92AF92BF92CF92DF92EF9201
:10576000FF920F931F93CF93DF936C0149015A016E
:1057700027013801662359F0633008F062E0C62F34
:10578000D0E08E01045F1F4F6130E1F404C00DE0F2
:1057900010E0C1E0D0E020E030E048E152E4C50193
:1057A000B4010E942B50181644F120E030E0A9010A
:1057B000C501B4010E944F4E87FF2CC0812C912C53
:1057C000540128C020E030E044EB52E4C501B401AC
:1057D0000E942B501816C4F020E030E044EB52EC4D
:1057E000C501B4010E944F4E87FF14C0812C912C3B
:1057F00054EBA52E52ECB52E0DC0812C912C48E116
:10580000A42E42E4B42E06C0812C912C34EBA32E9E
:1058100032E4B32EC301B2010E94BE4E2B013C0103
:10582000F601EC0FFD1FE854FF4F6081062E000CBF
:10583000770B880B990B0E94F14EA50194010E94F1
:10584000CD502B96CC0FDD1FCC0FDD1FCC0DDD1DF9
:10585000C758DF4F288139814A815B810E94724D90
:1058600020E030E044E353E40E94724D23E63BE045
:1058700046E351E40E94CD500E94BE4E9201AB011E
:10588000602FC601DF91CF911F910F91FF90EF9094
:10589000DF90CF90BF90AF909F908F907F906F9050
:1058A0005F904F90DDC7853011F48CE00CC08630DE
:1058B00011F48EE008C0282F30E021503109822FEA
:1058C000880F280F822F860F0895CF92DF92EF92D4
:1058D000FF920F931F93CF93DF936C017A018B019B
:1058E000C0E0D0E0CE15DF0581F0D8016D918D01CB
:1058F000D601ED91FC910190F081E02DC601199542
:10590000892B11F02196EECF7E01C701DF91CF9157
:105910001F910F91FF90EF90DF90CF900895FC01C1
:10592000538D448D252F30E0842F90E0821B930B04
:10593000541710F0CF96089501970895FC01918DAA
:10594000828D981761F0828DDF01A80FB11D5D96E1
:105950008C91928D9F5F9F73928F90E008958FEF4F
:105960009FEF0895FC01918D828D981731F0828D03
:10597000E80FF11D858D90E008958FEF9FEF08955A
:10598000FC01918D228D892F90E0805C9F4F821BBE
:1059900091098F739927089589EC97E0F1DF21E051
:1059A000892B09F420E0822F08958FE896E0E8DF44
:1059B00021E0892B09F420E0822F08958CE297E002
:1059C000DFDF21E0892B09F420E0822F08958BEDA1
:1059D00095E0D6DF21E0892B09F420E0822F08959D
:1059E0000E94E452EF92FF920F931F93CF93DF93A5
:1059F000EC0181E0888F9B8D8C8D981305C0E88920
:105A0000F989808185FD25C0F62E0B8D10E00F5F92
:105A10001F4F0F731127E02E8C8DE8120BC00FB6AD
:105A200007FCFACFE889F989808185FFF5CFCE019F
:105A3000BFD9F2CF8B8DFE01E80FF11DE35AFF4F66
:105A4000F0829FB7F8940B8FEA89FB89808180628E
:105A50000AC09FB7F894EE89FF896083E889F989C5
:105A600080818370806480839FBF81E090E0DF91BC
:105A7000CF911F910F91FF90EF900895CF93DF93F7
:105A8000EC01888D8823C1F0EA89FB89808185FD3E
:105A900005C0A889B9898C9186FD0EC00FB607FC98
:105AA000F5CF808185FFF2CFA889B9898C9185FFD8
:105AB000EDCFCE017DD9E8CFDF91CF9108953FB7EB
:105AC000F8948091D20A9091D30AA091D40AB0910F
:105AD000D50A26B5A89B05C02F3F19F00196A11D38
